:02000000A02935
:10000600710DF80DF90D7408F8027508031C750FCB
:10001600F902F00DF10D0F30FC00710DF80DF90D20
:100026007408701C1C28F8027508031C750FF90269
:100036002128F80775080318750FF907F00DF10D5B
:10004600FC0B102870182D287408F807750803187B
:08005600750FF9070000080016
:10005E0083120313FB01FA01F9018030F800F10C51
:10006E00F00C031C43287408F90775080318750F64
:10007E00FA070318FB0A0310F01F4B287408FA073F
:10008E0075080318750FFB07FB0CFA0CF90CF80C2E
:10009E00031C36287B08F3007A08F2007908F10079
:0600AE007808F0000800D4
:0E00B4008312031366088A00650882000800A4
:1000C200831203137408003A031D70287508003A5E
:1000D200031D7028FF30F0007F30F100C928831221
:1000E2000313FD01F901F8017108700403190034CA
:1000F20071087506FA00FA1BFD09FB01F51F862837
:10010200F409F509F40A0319F50AF11F8D28F0091B
:10011200F109F00A0319F10A71087504FA00FA1BD1
:10012200A22803207B18B528FD1F0034F009F1092D
:10013200F00A0319F10AF809F909F80A0319F90A88
:100142000034F51FB128F11BAD287108F9007008C1
:10015200F800F101F0019528F101F001F00A0034F4
:10016200F109F009FB0A9228F80A0319F90A74083E
:100172007802031D952875087902031D9528F90157
:10018200F801F00A0319F10AF11F95280000FF3463
:02019200080063
:0A01940083120313850186010800A1
:10019E00093083120313F4000030F5006B08F000F1
:1001AE006C08F10061207008E9007108EA00E701AF
:1001BE00E80180306806F00080306A067002031D88
:1001CE00EA286908670203189329E101E2018030E9
:1001DE006206F00080307002031DF72803306102C2
:1001EE0003188F29CA200630F0000030F100610894
:1001FE00F4006208F5002F2070086D0784000008D7
:10020E00F2007208F000F00D7010F830F005720870
:10021E007004F1007108F200F20D7210F20D7210FE
:10022E00F20D72106108F1000130F000710803192F
:10023E002429F00D7010FF3E1E29700872048500EF
:10024E000330FC009730FD00FD0B2B29FC0B2B29F6
:10025E0000000000CA206108F1000130F0007108B2
:10026E0003193D29F00D7010FF3E372970088500E7
:10027E000630F0000030F1006108F4006208F5006D
:10028E002F206D08F0070230700784000008F2007E
:10029E007208F000F00D7010F00D7010F00D70106F
:1002AE00700886000330FC009730FD00FD0B5D29C1
:1002BE00FC0B5D2900000000CA206108F10001302E
:1002CE00F000710803196F29F00D7010FF3E6929B7
:1002DE00700885000630F0000030F1006108F4006F
:1002EE006208F5002F206D08F007043070078400B7
:1002FE00000886000330FC009730FD00FD0B8529B9
:10030E00FC0B852900000000E10A0319E20AEE2821
:0A031E00E70A0319E80AE0280800C6
:100328005A208A110A128000840AE50A0319E60A8B
:08033800F003031D94290800E5
:10034000A6227230831603138F0085018601831263
:1003500085018601E301E40180306406F00080300D
:100360007002031DB529083063020318D7294D0810
:10037000EB004E08EC004430ED00CF204D08EB00C0
:100380004E08EC005830ED00CF204D08EB004E0831
:10039000EC004F30ED00CF204D08EB004E08EC0094
:1003A0002930ED00CF20E30A0319E40AAC29E30168
:1003B000E40180306406F00080307002031DE22901
:1003C000083063020318042A4D08EB004E08EC00C5
:1003D0004F30ED00CF204D08EB004E08EC005830B8
:1003E000ED00CF204D08EB004E08EC004430ED004E
:1003F000CF204D08EB004E08EC002930ED00CF2057
:10040000E30A0319E40AD929E301E4018030640610
:10041000F00080307002031D0F2A083063020318B9
:10042000312A4D08EB004E08EC002030ED00CF20C3
:100430004D08EB004E08EC003B30ED00CF204D089E
:10044000EB004E08EC003230ED00CF204D08EB0001
:100450004E08EC002930ED00CF20E30A0319E40A2E
:10046000062AE301E40180306406F0008030700267
:10047000031D3C2A0830630203185E2A4D08EB0076
:100480004E08EC003230ED00CF204D08EB004E0856
:10049000EC003B30ED00CF204D08EB004E08EC00A7
:1004A0002030ED00CF204D08EB004E08EC00293045
:1004B000ED00CF20E30A0319E40A332AAA295F2AB0
:10054C0020308400413083120313F0006530E50045
:08055C000230E60094210800C2
:1004CA000734003400340034073400340034003474
:0204DA000734E5
:1004DC00003407340034003407340034003407345B
:0204EC000034DA
:1004EE000034003407340034073400340734003449
:0204FE000034C8
:100500000034003400340734073407340034003436
:020510000034B5
:100512000134023404340134023404340134023428
:0205220004349F
:040524006434003407
:10052800043402340134043402340134043402340F
:0205380001348C
:10053A000234023402340234023402340234023401
:02054A00023479
:04400E00183FFF3F19
:00000001FF
