:02000000F22DDF
:10000600710DF80DF90D7408F8027508031C750FCB
:10001600F902F00DF10D0F30FC00710DF80DF90D20
:100026007408701C1C28F8027508031C750FF90269
:100036002128F80775080318750FF907F00DF10D5B
:10004600FC0B102870182D287408F807750803187B
:08005600750FF9070000080016
:10005E00831203137408003A031D3E287508003AF4
:10006E00031D3E28FF30F0007F30F10097288312E9
:10007E000313FD01F901F80171087004031900342E
:10008E0071087506FA00FA1BFD09FB01F51F5428CD
:10009E00F409F509F40A0319F50AF11F5B28F009B2
:1000AE00F109F00A0319F10A71087504FA00FA1B36
:1000BE00702803207B188328FD1F0034F009F109F6
:1000CE00F00A0319F10AF809F909F80A0319F90AED
:1000DE000034F51F7F28F11B7B287108F90070088A
:1000EE00F800F101F0016328F101F001F00A00348B
:1000FE00F109F009FB0A6028F80A0319F90A7408D5
:10010E007802031D632875087902031D6328F9011F
:10011E00F801F00A0319F10AF11F63280000FF34F9
:02012E000800C7
:1001300083120313FB01FA01F9018030F800F10C7E
:10014000F00C031CAC287408F90775080318750F28
:10015000FA070318FB0A0310F01FB4287408FA0703
:1001600075080318750FFB07FB0CFA0CF90CF80C5B
:10017000031C9F287B08F3007A08F2007908F1003D
:060180007808F000080001
:10018600831203133D08A7003E08A800A901AA018F
:060196000130A600080084
:10019C00831203132230FC00F801F901FA01FB0170
:1001AC00FC03031904290310FB0CFA0CF90CF80CD2
:1001BC00F30CF20CF10CF00C031CD628FC03031905
:1001CC00F6287408F80775080318750FF9077608F0
:1001DC000318760FFA0777080318770FFB07DA284E
:1001EC007408F80775080318750FF90776080318D3
:0E01FC00760FFA0777080318770FFB07080045
:10020A00831203132608031D0F290130BD00003095
:10021A00BE00C3202708F0002808F1002908F200D0
:10022A002A08F3006D30F4004E30F500C630F600AF
:10023A004130F700CE203930F5003030F600F701B2
:10024A00F8017008F50771080318710FF6077208AC
:10025A000318720FF70773080318730FF807770864
:10026A00F0007808F1000030F81BFF30F200F300CC
:10027A00FF30F0057F30F1050030F205F305700814
:10028A00A7007108A8007208A9007308AA0008004C
:10029A00093083120313F4000030F5003708F00028
:1002AA003808F1002F207008AB007108AC00AD01CE
:1002BA00AE0180302E06F00080302C067002031D3D
:1002CA0068292B082D0203181D2AAF01B0018030BE
:1002DA003006F00080307002031D752903302F02AA
:1002EA000318192A2F08F0003008F1000930F40029
:1002FA000030F50098203908F4003A08F5003B0868
:10030A00F6003C08F700700803199429F70CF60C5C
:10031A00F50CF40CF713771BF717FF3E89297408BD
:10032A00A4007508A5000530F2007408F0007508ED
:10033A00F10072080319A829F10CF00CF113711BD2
:10034A00F117FF3E9F2908307005F3000630F200CE
:10035A007408F0007508F10072080319BB29F10C42
:10036A00F00CF113711BF117FF3EB2290730F005AB
:10037A0070087304F1007108F200F20D7210F20DA8
:10038A007210F20D72102F08F1000130F00071089E
:10039A000319D329F00D7010FF3ECD29700872049D
:1003AA00850086010330FC009730FD00FD0BDB2938
:1003BA00FC0BDB29000000002F08F1000130F000DF
:1003CA0071080319EC29F00D7010FF3EE629700838
:1003DA0085003830240586000330FC009730FD0084
:1003EA00FD0BF529FC0BF529000000002F08F10090
:1003FA000130F00071080319062AF00D7010FF3E53
:10040A00002A700885000730240586000330FC00A6
:10041A009730FD00FD0B0F2AFC0B0F2A000000008D
:10042A00AF0A0319B00A6C29AD0A0319AE0A5E298C
:02043A000800B8
:0E043C008312031321088A00200882000800A2
:10044A0083120313A201A30180302306F000803037
:10045A0036067002031D332A3508220203186D2A54
:10046A003308B7003408B8009230B9002430BA0013
:10047A004930BB000230BC004D213308B7003408B4
:10048A00B8004930B9002430BA009130BB000430BA
:10049A00BC004D213308B7003408B8000030B90059
:1004AA00FE30BA000330BB000030BC004D213308D7
:1004BA00B7003408B8002430B9002530BA00253016
:1004CA00BB000130BC004D21A20A0319A30A292A44
:0204DA00080018
:1004DC0083120313A201A30180302306F0008030A5
:1004EC0036067002031D7C2A350822020318B62A30
:1004FC003308B7003408B8003830B9007030BA008F
:10050C00E030BB000030BC004D213308B70034088C
:10051C00B8005430B900A830BA005030BB000130DC
:10052C00BC004D213308B7003408B8009230B90034
:10053C002430BA004930BB000230BC004D213308D6
:10054C00B7003408B8001130B9002330BA00463077
:10055C00BB000430BC004D21A20A0319A30A722A65
:02056C00080085
:10056E0083120313A201A30180302306F000803012
:10057E0036067002031DC52A350822020318332BD6
:10058E003308B7003408B8000130B9001030BA0093
:10059E000030BB000130BC004D213308B7003408D9
:1005AE00B8000830B9008030BA000030BB0002300D
:1005BE00BC004D213308B7003408B8004030B900F4
:1005CE000030BA000130BB000430BC004D213308AE
:1005DE00B7003408B8008030B9000030BA0082305D
:1005EE00BB000030BC004D213308B7003408B80002
:1005FE000030B9004130BA001030BB000030BC00F2
:10060E004D213308B7003408B8002030B900083047
:10061E00BA000830BB000030BC004D213308B700D3
:10062E003408B8000430B9000430BA000430BB00FE
:10063E000030BC004D213308B7003408B80002303A
:10064E00B9000230BA002030BB000030BC004D2192
:0A065E00A20A0319A30ABB2A080030
:1006680083120313A201A30180302306F000803017
:1006780036067002031D422B3508220203187C2B14
:100688003308B7003408B8003830B9007030BA0001
:10069800E030BB000030BC004D213308B7003408FF
:1006A800B8001130B9002330BA004630BB0004301E
:1006B800BC004D213308B7003408B8009230B900A7
:1006C8002430BA004930BB000230BC004D21330849
:1006D800B7003408B8005430B900A830BA00503018
:1006E800BB000130BC004D21A20A0319A30A382B14
:0206F8000800F8
:1006FA0083120313A201A30180302306F000803085
:10070A0036067002031D8B2B350822020318C32BF1
:10071A003308B7003408B800FF30B9000130BA0016
:10072A00BB01BC014D213308B7003408B8000030C2
:10073A00B900FE30BA000330BB000030BC004D21C6
:10074A003308B7003408B8000030B9000030BA00E6
:10075A00FC30BB000730BC004D213308B700340819
:10076A00B8000030B900FE30BA000330BB000030D8
:0E077A00BC004D21A20A0319A30A812B08001E
:1007880083120313A201A30180302306F0008030F6
:1007980036067002031DD22B350822020318402C9E
:1007A8003308B7003408B8000030B9000130BA0087
:1007B8000130BB000130BC004D213308B7003408BC
:1007C800B8008030B9008030BA002030BB0000305B
:1007D800BC004D213308B7003408B8004030B900D8
:1007E8001030BA000430BB000030BC004D21330883
:1007F800B7003408B8000830B9000230BA00083031
:10080800BB000030BC004D213308B7003408B800E5
:100818000130B9000430BA001030BB000030BC0011
:100828004D213308B7003408B8000230B900083049
:10083800BA008030BB000030BC004D213308B7003F
:100848003408B8000430B9004030BA000030BB00AA
:100858000430BC004D213308B7003408B8002030FC
:10086800B9000030BA000230BB000230BC004D2194
:0A087800A20A0319A30AC82B080006
:100882001E228A110A128000840AA00A0319A10AF0
:08089200F003031D412C0800D6
:10089A0083120313A201A30180302306F0008030E3
:1008AA0036067002031D5B2C350822020318952CAC
:1008BA003308B7003408B8003830B9007030BA00CD
:1008CA00E030BB000030BC004D213308B7003408CB
:1008DA00B8000730B9007030BA000030BB000730EA
:1008EA00BC004D213308B7003408B8000030B90005
:1008FA00FE30BA000330BB000030BC004D21330883
:10090A00B7003408B800C030B9007130BA001C30E2
:10091A00BB000030BC004D21A20A0319A30A512CC6
:02092A000800C3
:10092C0083120313A201A30180302306F000803050
:10093C0036067002031DA42C350822020318DE2C87
:10094C003308B7003408B8003830B9007030BA003A
:10095C00E030BB000030BC004D213308B700340838
:10096C00B800C030B9007130BA001C30BB00003088
:10097C00BC004D213308B7003408B8000030B90072
:10098C00FE30BA000330BB000030BC004D213308F0
:10099C00B7003408B8000730B9007030BA00003026
:1009AC00BB000730BC004D21A20A0319A30A9A2CE4
:0209BC00080031
:1009BE0083120313A201A30180302306F0008030BE
:1009CE0036067002031DED2C350822020318272D62
:1009DE003308B7003408B8009230B9002430BA009A
:1009EE004930BB000230BC004D213308B70034083B
:1009FE00B8002430B9002530BA002530BB000130D4
:100A0E00BC004D213308B7003408B8000030B900DF
:100A1E00FE30BA000330BB000030BC004D2133085D
:100A2E00B7003408B8004930B9002430BA0091300C
:100A3E00BB000430BC004D21A20A0319A30AE32C0B
:020A4E0008009E
:100A500083120313A201A30180302306F00080302B
:100A600036067002031D362D3508220203185F2D4D
:100A700005211B30F4000030F5002F207808F0002D
:100A80007908F1000030B9000030BA000030BB0036
:100A90000430BC0070080319562DBC0CBB0CBA0CFA
:100AA000B90CBC133C1BBC17FF3E4B2D3308B700E1
:100AB0003408B8004D21A20A0319A30A2C2D0800FE
:100AC00083120313A201A30180302306F0008030BB
:100AD00036067002031D6E2D350822020318A82D5C
:100AE0003308B7003408B800C030B9008130BA000C
:100AF0000330BB000730BC004D213308B700340879
:100B0000B8003830B9007030BA00E030BB000030B7
:100B1000BC004D213308B7003408B8000730B900D5
:100B20000E30BA001C30BB000030BC004D21330831
:100B3000B7003408B8003830B9007030BA00E0307F
:100B4000BB000030BC004D21A20A0319A30A642D8A
:020B500008009B
:100B520083120313A201A30180302306F000803028
:100B620036067002031DB72D350822020318F12D37
:100B72003308B7003408B8004930B9009230BA00DF
:100B82002430BB000130BC004D213308B7003408CB
:100B9200B8009230B9002430BA004930BB000230AC
:100BA200BC004D213308B7003408B8002430B90026
:100BB2004930BA009230BB000430BC004D213308EA
:100BC200B7003408B8009230B9002430BA00493076
:100BD200BB000230BC004D21A20A0319A30AAD2DAD
:020BE200080009
:100BE4007230831603138F008501860105210C30B2
:100BF400F4000030F5002F207808F0007908F100A7
:100C04007008B1007108B2007F2E6430B300003068
:100C1400B4000830B5000030B6007D23DF2E643008
:100C2400B3000030B4000830B5000030B600A92588
:100C3400DF2E6430B3000030B4000830B50000305B
:100C4400B6006025DF2E3230B3000030B4004030EF
:100C5400B5000030B6002825DF2E6430B300003024
:100C6400B4000830B5000030B6002522DF2E643011
:100C7400B3000030B4000830B5000030B6004D2495
:100C8400DF2E6430B3000030B4000830B50000300B
:100C9400B6003423DF2E6430B3000030B4000830D3
:100CA400B5000030B600DF24DF2E6430B30000301E
:100CB400B4000830B5000030B6009624DF2E64304E
:100CC400B3000030B4000830B5000030B6006E2226
:100CD400DF2E6430B3000030B4000430B5000030BF
:100CE400B600C423DF2E6430B3000030B4000430F7
:100CF400B5000030B600B722DF2E00303206031DE7
:100D0400852E003031060319072E00303206031DEC
:100D14008D2E013031060319112E00303206031DC9
:100D2400952E0230310603191B2E00303206031DA6
:100D34009D2E033031060319252E00303206031D83
:100D4400A52E0430310603192F2E00303206031D60
:100D5400AD2E053031060319392E00303206031D3D
:100D6400B52E063031060319432E00303206031D1A
:100D7400BD2E0730310603194D2E00303206031DF7
:100D8400C52E083031060319572E00303206031DD4
:100D9400CD2E093031060319612E00303206031DB1
:100DA400D52E0A30310603196B2E00303206031D8E
:0E0DB400DD2E0B3031060319752EF82DE02EC2
:04400E00183FFF3F19
:00000001FF
